:020000040000FA
:10000000012881018B0187018601831603130630C5
:100010009F0086010F30870083120311A7013D2145
:100020005430612131306121C0305521543061217B
:10003000323061214820FA20CC30A9005720CC3042
:10004000B30009214430A90057204430B3000921EE
:100050002721FF303302031D28284820FA20CC3006
:10006000A9005720CC30B3000921BE30A900572089
:10007000BE30B30009217520AA007520AB008B208B
:100080002721AA002721AB00C23055218D201A2834
:100090008316071783120713831607138312C630BC
:1000A0008021831607178312C6308021080008308C
:1000B000A400A90C031C60286B28A40B5928080075
:1000C0000713831607138312123080210000831652
:1000D000071783125D2807138316071383128316ED
:1000E00007178312123080215D280830A400A9016F
:1000F0000713831607138312831607178312000052
:10010000071F0310071B0314A90C0C308021A40B3C
:1001100078282908080082305521AB1BC128C72840
:10012000AC012A08AC00AC0E2B182C162B1C2C1280
:10013000AB18AC16AB1CAC122B192C172B1D2C13A7
:10014000AC132C08AD00CA20E9202C306121AA1381
:100150002A13AA122A122A08B02061212030612114
:10016000820730343134313432343334333434343C
:10017000343435343634363437343734383439342B
:1001800039342D306121AA09AA0AAB0990282B30F5
:100190006121902803100830A400B001B101AC0D1A
:1001A000B00DA40BDA28300E0F39B10030080F392A
:1001B000B000080030308400DE20CF280330000774
:1001C000B200B219800030300007B200B21B8000CC
:1001D000003464302D020318F728B1080319F328FE
:1001E0003030310461213030300461210800313079
:1001F0006121F028831687178312871383168713CC
:100200008312C6308021831687178312C63080215F
:1002100008000830A400B30C031C12291D29A40BEC
:100220000B2908008713831687138312123080214D
:1002300000008316871783120F29871383168713ED
:100240008312831687178312123080210F290830FA
:10025000A400B301871383168713831283168717AD
:1002600083120000871F0310871B0314B30C0C308C
:100270008021A40B2A2933080800B93074213830B2
:1002800055213A307421383055213A3074213830B4
:1002900055211430742138305521143074210C301C
:1002A0005521143074216B210800860007120000CC
:1002B00000008716000000000000000087127B216C
:1002C00008008600071600000000871600000000E6
:1002D00087127B21080001305521143074218030B1
:1002E0005521143074210800A100A000A00B76292C
:1002F000A10B752908001930A000A00B7D2908006A
:08030000A000A00B81290800F8
:040308000034003489
:02400E00713F00
:00000001FF
